:1000000012C02AC029C028C027C026C025C025C0CC
:100010004DC022C021C020C01FC01EC01DC01CC0BA
:100020001BC01AC019C011241FBECFEDCDBF10E0F8
:10003000A0E6B0E0E2E7F4E002C005900D92AA3A33
:10004000B107D9F710E0AAEAB0E001C01D92A03CC8
:10005000B107E1F789D10BC2D3CF1F920F920FB630
:100060000F9211242F938F939F93EF93FF938BB154
:100070009CB1E091B400EF5FE7702091B500E2170A
:1000800041F08871E093B400F0E0EA54FF4F9083B0
:1000900001C082E08093BE00FF91EF919F918F910C
:1000A0002F910F900FBE0F901F9018951F920F92D7
:1000B0000FB60F9211248F939F93EF93FF9390911C
:1000C000AA008091AB00981761F0E091AB00EF5F60
:1000D000E770E093AB00F0E0E455FF4F80818CB90E
:1000E00001C05598FF91EF919F918F910F900FBE96
:1000F0000F901F9018951092AA001092AB001092CA
:10010000B4001092B50097FF03C022E02BB99F778F
:1001100092B989B988E98AB986E083B9089590913E
:10012000B4008091B500981789F0E091B500EF5FB9
:10013000E770E093B500F0E0EA54FF4F80819091C2
:10014000BE00392F20E0280F311D02C020E031E031
:10015000C90108959091AA009F5F97702091AB000C
:100160009217E1F3E92FF0E0E455FF4F808390937D
:10017000AA00559A0895EF92FF92CF93DF93E82E4D
:10018000E7017E01F92EE70101C0E4DF89918823B0
:10019000E1F7DF91CF91FF90EF900895DF93CF9338
:1001A000CDB7DEB7C850CDBFBE016F5F7F4F4AE00D
:1001B00050E01AD1E0DFC85FCDBFCF91DF91089545
:1001C000CF93DF93EC0101C0C5DFFE01219684913E
:1001D0008823D1F7DF91CF910895C59AC79ABF9A26
:1001E000BD9A8FEF8FB98AE28DB980EF8EB90895ED
:1001F0008091BF0008958EB98BE200C000C000005E
:100200008DB9B79BFECF00C000C08DB9769BF5CFEE
:1002100000C000C000008FB19FEF9FB9BD9A089544
:10022000C79AC79BFECF00C000C00000C59800C0A1
:1002300000C0C798C59A779905C083E08093BF0036
:1002400080E0089581E00895C598C79AB79BFECFD6
:1002500000C000C0C59A00C000C00000759905C06C
:1002600084E08093BF0080E0089581E00895CF92FC
:10027000DF92EF92FF920F931F93CF93DF93EC01E6
:10028000E62E8091BF00982F91609093BF009881D7
:1002900090FD03C083608093BF00C2DF882309F410
:1002A0004BC0FE2C8E01CC24CA94DD24D3948091C3
:1002B000BF00837049F1C798F80180818FB980EF42
:1002C0009ADFBD988EEF97DF9091BF0080FF06C048
:1002D00090FF02C081E00FC082E00DC0892F8570C1
:1002E000843061F4888181608883D092BF0098DF78
:1002F0008823C9F48AE08093BF001EC00F5F1F4FA0
:100300009E7F9093BF0011C0BD9880EF74DFF8010D
:1003100081938F01FF2DF13011F4CFB801C01FB8C8
:100320008EEF69DF02C0FE2C8E01FA9409F0BFCF78
:100330008BDF91E0882309F490E0892FDF91CF9142
:100340001F910F91FF90EF90DF90CF900895109242
:10035000BF008DDF0895FC0120812E7F208324E0E3
:100360002093BF0084DF08950F931F93DF93CF93F3
:10037000CDB7DEB7CA50CDBF82E090E0BCDE789446
:100380002CDF88E589831A828BEA8B83CE01019664
:1003900063E0DDDF17BA18BABC9AC49A80E690E031
:1003A000EADE8FE39DE0A3E081509040A040E1F7BA
:1003B00000C00000C498B3DE8C0190FDFCCF93FF19
:1003C00003C087E690E0D7DE12FF03C08AE790E023
:1003D000D2DE11FF03C08FE890E0CDDEC801DEDE83
:1003E00087EA90E0C8DEE7CFFB019F01E894423046
:1003F000BCF04532ACF44A3029F497FB1EF49095DA
:1004000081959F4F642F77271ED0805D8A330CF033
:10041000895D8193CB010097A9F716F45DE25193B2
:100420001082C90100C0DC01FC01672F71917723A4
:10043000E1F7329704C07C916D9370836291AE179F
:10044000BF07C8F30895AA1BBB1B51E107C0AA1F31
:10045000BB1FA617B70710F0A61BB70B881F991F65
:100460005A95A9F780959095BC01CD010895F8940F
:02047000FFCFBC
:10047200746573740D0A0055415254204672616DC1
:1004820065204572726F723A200055415254204FD6
:1004920076657272756E204572726F723A200042F2
:1004A2007566666572206F766572666C6F77206519
:0A04B20072726F723A20000D0A000A
:00000001FF
