:1000000012C01FC01EC01DC01CC01BC01AC019C01A
:1000100018C017C016C015C014C013C012C011C03C
:1000200010C00FC00EC011241FBECFEDCDBF10E019
:10003000A0E6B0E001C01D92A136B107E1F7D7D02C
:1000400002C1DECFC59AC79ABF9ABD9A8FEF8FB90A
:100050008AE28DB980EF8EB908958091600008958D
:100060008EB98BE200C000C000008DB9B79BFECFF7
:1000700000C000C08DB9769BF5CF00C000C0000065
:100080008FB19FEF9FB9BD9A0895C79AC79BFECFC6
:1000900000C000C00000C59800C000C0C798C59A45
:1000A000779905C083E08093600080E0089581E047
:1000B0000895C598C79AB79BFECF00C000C0C59AE7
:1000C00000C000C00000759905C084E08093600006
:1000D00080E0089581E00895CF92DF92EF92FF9241
:1000E0000F931F93CF93DF93EC01E62E8091600076
:1000F000982F916090936000988190FD03C0836079
:1001000080936000C2DF882309F44BC0FE2C8E016F
:10011000CC24CA94DD24D39480916000837049F18B
:10012000C798F80180818FB980EF9ADFBD988EEF74
:1001300097DF9091600080FF06C090FF02C081E0D1
:100140000FC082E00DC0892F8570843061F48881F2
:1001500081608883D092600098DF8823C9F48AE0A8
:10016000809360001EC00F5F1F4F9E7F90936000C2
:1001700011C0BD9880EF74DFF80181938F01FF2DCE
:10018000F13011F4CFB801C01FB88EEF69DF02C0A3
:10019000FE2C8E01FA9409F0BFCF8BDF91E088230B
:1001A00009F490E0892FDF91CF911F910F91FF907B
:1001B000EF90DF90CF900895109260008DDF08954A
:1001C000FC0120812E7F208324E02093600084DFC7
:1001D000089589B988E18AB986E083B908955F9B5B
:1001E000FECF8CB108955D9BFECF8CB90895DF934F
:1001F000CF93CDB7DEB7CA50CDBF8CE0EADF22DFA8
:1002000088E589831A828BEA8B83CE01019663E0AD
:10021000D3DF17BA18BABC9AC49A8FE39DE0A3E063
:1002200081509040A040E1F700C00000C4988FE3E7
:100230009DE0A3E081509040A040E1F700C00000A5
:0A024000CEDFD1DFFDCFF894FFCF31
:00000001FF
