:1000000012C02AC029C028C027C026C025C024C0CD
:1000100023C022C021C020C01FC01EC01DC01CC0E4
:100020001BC01AC019C011241FBECFEDCDBF10E0F8
:10003000A0E6B0E0E0EDF3E002C005900D92A43739
:10004000B107D9F710E0A4E7B0E001C01D92A537D1
:10005000B107E1F7DFD0BAC1D3CFC59AC79ABF9A2B
:10006000BD9A8FEF8FB98AE28DB980EF8EB908956E
:100070008091740008958EB98BE200C000C000002A
:100080008DB9B79BFECF00C000C08DB9769BF5CF70
:1000900000C000C000008FB19FEF9FB9BD9A0895C6
:1000A000C79AC79BFECF00C000C00000C59800C023
:1000B00000C0C798C59A779905C083E08093740003
:1000C00080E0089581E00895C598C79AB79BFECF58
:1000D00000C000C0C59A00C000C00000759905C0EE
:1000E00084E08093740080E0089581E00895CF92C9
:1000F000DF92EF92FF920F931F93CF93DF93EC0168
:10010000E62E80917400982F9160909374009881EE
:1001100090FD03C0836080937400C2DF882309F4DC
:100120004BC0FE2C8E01CC24CA94DD24D394809144
:100130007400837049F1C798F80180818FB980EF0E
:100140009ADFBD988EEF97DF9091740080FF06C014
:1001500090FF02C081E00FC082E00DC0892F857042
:10016000843061F4888181608883D092740098DF44
:100170008823C9F48AE0809374001EC00F5F1F4F6C
:100180009E7F9093740011C0BD9880EF74DFF801DA
:1001900081938F01FF2DF13011F4CFB801C01FB84A
:1001A0008EEF69DF02C0FE2C8E01FA9409F0BFCFFA
:1001B0008BDF91E0882309F490E0892FDF91CF91C4
:1001C0001F910F91FF90EF90DF90CF9008951092C4
:1001D00074008DDF0895FC0120812E7F208324E0B0
:1001E0002093740084DF089589B988E18AB986E094
:1001F00083B908955F9BFECF8CB108955D9BFECFC0
:100200008CB90895C49A0895C4980895C39A08951E
:10021000C39808956F927F928F929F92AF92BF92F0
:10022000CF92DF92EF92FF920F931F93DF93CF93C2
:10023000CDB7DEB7CB52CDBFDE011D96EAE6F0E0CA
:100240008AE001900D928150E1F7DE015796E0E6D9
:10025000F0E08AE001900D928150E1F78CE0C4DF7C
:10026000FCDE87B3886187BB8E01035F1F4F67E1A8
:10027000E62EF12CEC0EFD1E670151E2A52EB12CED
:10028000AC0EBD1EF80181918F0189A3F701819108
:100290007F018AA31BA2C50163E099DF0C151D0530
:1002A00089F777248E010B5F1F4F7E010894E11CB4
:1002B000F11C4DE0C42ED12CCC0EDD1E37E1A32E57
:1002C000B12CAC0EBD1E21E2822E912C8C0E9D1EF7
:1002D00091DF8D3019F08A3009F048C0F72DF630E3
:1002E00009F041C08F818D33F1F58D818D3481F41A
:1002F0009E819D3469F48885843541F489858235F1
:1003000029F48A85853511F481DF2DC081DF2BC06A
:100310006E808D3429F01E82C80131D0782E01C044
:1003200077248885898389858A838A858B831C8243
:10033000C70125D0272D30E0220F331F91E0462D35
:100340004C3409F490E0292B30E0F601E20FF31F62
:10035000908199A32A0D3B1DF90190819AA38BA34B
:10036000C40163E034DF50DF7724B2CF8BA74ADFCC
:10037000F801E70DF11D8BA580837394A9CFFC01D3
:1003800088279927E89421912032E9F3293010F049
:100390002E30C8F32B3239F02D3231F4689403C07B
:1003A0000BD0820F911D219120532A30C8F31EF4E7
:1003B000909581959F4F0895BC01880F991F880FD4
:1003C000991F860F971F880F991F0895F894FFCFE4
:1003D000001000001010606070705C5C585A585A31
:0403E000585A585AB5
:00000001FF
