:1000000012C02AC029C028C027C026C025C024C0CD
:1000100023C022C021C020C01FC01EC01DC01CC0E4
:100020001BC01AC019C011241FBECFEDCDBF10E0F8
:10003000A0E6B0E0E2E9F3E002C005900D92A4373B
:10004000B107D9F710E0A4E7B0E001C01D92A537D1
:10005000B107E1F7D8D09BC1D3CFC59AC79ABF9A51
:10006000BD9A8FEF8FB98AE28DB980EF8EB908956E
:100070008091740008958EB98BE200C000C000002A
:100080008DB9B79BFECF00C000C08DB9769BF5CF70
:1000900000C000C000008FB19FEF9FB9BD9A0895C6
:1000A000C79AC79BFECF00C000C00000C59800C023
:1000B00000C0C798C59A779905C083E08093740003
:1000C00080E0089581E00895C598C79AB79BFECF58
:1000D00000C000C0C59A00C000C00000759905C0EE
:1000E00084E08093740080E0089581E00895CF92C9
:1000F000DF92EF92FF920F931F93CF93DF938C01C8
:10010000E62E80917400816080937400F8019081E4
:1001100090FD03C0826080937400C2DF882309F4DD
:1001200046C0FE2CE801DD24DA94CC24C3948091EF
:100130007400837039F1C79889918FB980EF9BDF84
:10014000BD988EEF98DF9091740080FF06C090FFFD
:1001500002C081E010C082E00EC0892F857084301B
:1001600069F4F801808181608083C092740098DF17
:10017000811115C08AE08093740019C09E7F90930E
:1001800074000FC0BD9880EF76DF8993F1E0FF1215
:1001900002C0DFB801C01FB88EEF6DDF02C0FE2CB9
:1001A000E801FA9421F690DF91E0811101C090E01E
:1001B000892FDF91CF911F910F91FF90EF90DF90EA
:1001C000CF9008951092740092CFFC0120812E7F71
:1001D000208324E0209374008ACF89B988E18AB90A
:1001E00086E083B908955F9BFECF8CB108955D9B37
:1001F000FECF8CB90895C49A0895C4980895C39AFF
:100200000895C3980895CF93DF93CDB7DD27CB52E0
:10021000CDBF8AE0E0E6F0E0DE01559601900D9258
:100220008A95E1F78AE0EAE6F0E0DE011B960190AC
:100230000D928A95E1F78CE0D0DF0FDF87B38861FC
:1002400087BB8E010B5E1F4F7E018BE0E80EF11C19
:100250006E01EFE1CE0ED11C8CEDB82EF80181912C
:100260008F018983F70181917F018A83BB8263E0DB
:10027000CE010196A7DF0C151D0581F710E0B3DF55
:100280008D3019F08A3009F04DC0163009F048C0A1
:1002900089A18D3309F044C08F8D8D3481F498A1EC
:1002A0009D3469F48AA1843541F48BA1823529F407
:1002B0008CA1853511F4A3DF33C0A3DF31C011E079
:1002C00098A19C3409F410E08D3431F018A2CE01CD
:1002D0004F9634D0082F01C000E08AA18FA38BA1D4
:1002E00088A78CA189A71AA6CE01879627D0202F90
:1002F000220F212B30E0E5E1F0E0EC0FFD1FE20FD3
:10030000F31F90819983EBE0F0E0EC0FFD1FE20F0B
:10031000F31F90819A838B8363E0CE01019652DFB5
:100320006CDFACCF8BA767DFEFE1F0E0EC0FFD1FD8
:10033000E10FF11D8BA580831F5FA1CFE82FF92F5F
:1003400088279927E89421912032E9F3293010F089
:100350002E30C8F32B3239F02D3231F4689403C0BB
:100360000BD0820F911D219120532A30C8F31EF427
:10037000909581959F4F0895682F792F880F991F29
:10038000880F991F860F971F880F991F0895F8945B
:02039000FFCF9D
:100392005C5C585A585A585A585A001000001010AB
:0403A20060607070B7
:00000001FF
